S01000006669726D776172652E73726563B7
S113000024C033C032C031C030C02FC02EC02DC078
S11300102CC0A4C02AC029C028C027C026C025C01F
S11300202BC223C0DFC003C120C01FC01EC01DC01F
S11300301CC01BC028EE34A4E2A121EC20A0FFF7D1
S11300406023392631713B79620011241FBECFEF42
S1130050D2E0DEBFCDBF12E0A0E0B1E001C01D924E
S1130060A23DB107E1F70BD19EC6CACFE5E0F1E0AE
S113007001911191219130814427060F181F241FEB
S1130080341FE5E0F1E00193119321933083089547
S1130090E5E0F1E0619171918191908126E088948D
S11300A097958795779567952A95C9F7CB01089514
S11300B0BB24AA24862E889D902CA12C989DA00C4C
S11300C0B11C872E889DA00CB11C989DB00CAB2D43
S11300D09A2D892D27E08894A795979587952A9539
S11300E0D1F70895E0E4F1E02191319141915081FB
S11300F01124280F391F411D511DE0E4F1E0219323
S11301003193419350830895E0E4F1E0619171915A
S11301108191908120E737E140E050E0A1E21A2E7E
S1130120AA1BBB1BFD010DC0AA1FBB1FEE1FFF1F97
S1130130A217B307E407F50720F0A21BB30BE40BE7
S1130140F50B661F771F881F991F1A9469F760952E
S11301507095809590959B01822F08951F920F9220
S11301600FB60F9211248F939F9390913C0180912D
S113017018019A3079F4853058F1863031F41092B0
S1130180180185E080933F0123C01092180110925A
S11301903F011EC09B33E1F4809144018058809359
S11301A0440180913D018B3369F480913E018F3F7E
S11301B021F08F5F80933E0102C010923E011092A5
S11301C03D0103C08F5F80933D0110923C0103C049
S11301D09F5F90933C019F918F910F900FBE0F9062
S11301E01F9018951F920F920FB60F9211248F93A0
S11301F09F93EF93FF9390913A019D3058F480912F
S1130200C600E92FF0E0E75BFE4F80839F5F909389
S11302103A0104C08091C60080931401FF91EF91CC
S11302209F918F910F900FBE0F901F9018951F9262
S11302300F920FB60F9211248F939F93EF93FF9316
S113024090913B01923158F4E92FF0E0E054FD4FD6
S113025080818093C6009F5F90933B0107C01092FA
S11302603B018091C1008F7D8093C100FF91EF918C
S11302709F918F910F900FBE0F901F901895CF9361
S1130280DF93A8952FE088E190E00FB6F894A89545
S1130290809360000FBE209360001ED1789411D229
S11302A08091090196D1A89580917A0086FDABC012
S11302B060917800609314019091790090931501F6
S11302C080910401803440F4892FD0DE80910401B0
S11302D08F5F8093040194C080910901823018F0EB
S11302E0835080930901609105017091060180910A
S11302F0070190910801CCDE90931A0180931901B3
S1130300E0910901CE2FD0E0FE01E55DFE4F608152
S113031028D2CC0FDD1FC65FDE4F998388831092ED
S11303200501109206011092070110920801109223
S1130330040180910901843020F48F5F80930901C6
S113034058C01092090180910A0190910B0167E84D
S113035071E0AEDE90931C0180931B0180910C012F
S113036090910D0167E871E0A3DE90931E018093E4
S11303701D0180910E0190910F0167E771E098DEF5
S11303809093200180931F0180911001909111019D
S113039067E771E08DDE90932201809321018091C3
S11303A012019091130167E771E082DE90932401BA
S11303B08093230180911F019091200120912101BC
S11303C0309122012817390738F4821B930B90933C
S11303D026018093250104C0109226011092250164
S11303E080913D0160913C014BE151E02FE331E00C
S11303F0D0D380910901823018F08D5F8093090178
S113040080910901E6D0809149018C3459F08D34F2
S113041018F48B3411F50DC0823589F08336E9F474
S11304202FD214C054D240D38091C10080628093F3
S1130430C10080913A018C3089F495D20EC080912C
S113044047018F3A10F010924701DDD22DD38091ED
S1130450C10080628093C10001C026D3809118013D
S113046087FD8F778093140180911401853010F4F7
S113047004D319CFF3D217CF1F920F920FB60F9256
S113048011242F933F934F935F936F937F938F9395
S11304909F93AF93BF93EF93FF938091000168D034
S11304A080910001823021F08F5F8093000102C0AF
S11304B010920001CFD0FF91EF91BF91AF919F9126
S11304C08F917F916F915F914F913F912F910F90F9
S11304D00FBE0F901F9018958CEF8AB986E084B9EF
S11304E021E025B98CE187B984E085BD20936E00B5
S11304F083EE80937E0082EA8093800089E180937A
S113050081008FEF9FEF909387008093860085E0B2
S11305108093B10080E28093B6002093B200809172
S1130520B60090E08F719070892BC9F781E08093B9
S113053070001092C50083E38093C40088E980931F
S1130540C10086E08093C200089520E030E087FF78
S113055002C05C9A01C05C985A9A5A982F5F3F4F28
S11305602830310511F0880FF2CF5B9A5B9808951B
S11305701F93182F20910101822F8F718093010105
S11305808BB18F718BB9812F90E0FC01EF5FFE4F2F
S1130590E081F0E0EC5CFF4F4491019620762295D7
S11305A02695277030E08217930711F0842F02C03C
S11305B0842F8F7DCADF113039F0113018F01230DA
S11305C031F404C05F9A03C05E9A01C05D9A1F9122
S11305D00895ECE7F0E01082805C808386EC8093E1
S11305E07A0008959C01462F68EE73E0C8D3FC019D
S11305F0C90168EE73E0C3D3460F40930101CF01F4
S113060064E670E0BCD360930201CF0164E670E05D
S1130610B6D36AE070E0B3D3609303010895F8940D
S1130620F999FECF81BDF89A789480B508950F9317
S11306301F93182F062FF894F999FECF812FEFDF1F
S1130640801729F011BD00BDFA9AF99A78941F9188
S11306500F91089518992BC080911601883119F5CE
S11306608091180187FD11C0843010F48F570BC09E
S1130670843011F480E807C010923C01853011F4F5
S113068086E801C085E880931801809117018F3FA7
S113069031F4109216011092170185E80FC08F5F94
S11306A08093170108958F5F809316010895109227
S11306B0160110921701809118018F778093180109
S11306C008950F931F93CF93DF93CBE2D1E010E013
S11306D0812FA5DF88838F3F09F418821F5F21963D
S11306E01530B1F705E0C0E0D0E0802F98DF182F77
S11306F0802F8F5F94DF282F88279927822F912FAF
S1130700FE01EE0FFF1FE05DFE4F918380830E5FBD
S113071021960B3051F7E0E3F1E020E0A4E1B5E0ED
S113072068E775E048E354E080819181895B9B40F0
S113073078F0213041F0213018F0223049F406C01D
S11307407183608305C0B183A08302C05183408359
S11307502F5F3296233041F7DF91CF911F910F9194
S113076008959C0167FD03C0260F311D07C06F5714
S113077070E06817790710F4261B370BC901089538
S113078040912101509122012091250130912601AF
S113079024173507B8F4BA01621B730B8091380132
S11307A0909139016031710550F0EFEF8F3F9E0752
S11307B031F00196909339018093380107C0653078
S11307C0710520F410923901109238014217530731
S11307D0B0F4241B350B8091360190913701203100
S11307E0310550F04FEF8F3F940731F0019690930D
S11307F037018093360107C02530310520F410926B
S1130800370110923601809136019091370190930F
S11308108900809388009093280180932701809118
S113082038019091390190938B0080938A009093C2
S11308302A01809329010895FC0150E02FEF3FEF36
S1130840A1E0B0EA14C0808190E02827392740E075
S1130850C9019695879520FF04C09C012A273B2750
S113086001C09C014F5F483099F75F5F319656177E
S113087050F3822F8093D002832F8093D102089566
S113088020E030E0822F8695E82FF0E0D901A054D3
S1130890BD4F20FD09C0EE0FFF1FE55EFE4F8081B6
S11308A09181AC01842F08C0EE0FFF1FE55EFE4F5F
S11308B080819181AC01852F8C932F5F3F4F203134
S11308C0310501F780EC92E060E1B6DF0895809194
S11308D02B018093C00280912C018093C1028091EE
S11308E02D018093C20280912E018093C3028091D6
S11308F02F018093C40280913001909131019C01B9
S1130900922F832F8093C5029093C6028091320167
S1130910909133019C01922F832F8093C70290936F
S1130920C80280913401909135019C01922F832F4C
S11309308093C9029093CA028BE071DE8093CB024C
S113094080913C018093CC0280913D018093CD0243
S113095080913E018093CE021092CF0280EC92E00F
S113096060E16ADF08951F93CF93DF93EAE4F1E037
S1130970ABE2B1E080818D93119221E0EF34F20774
S1130980C9F7C0E0D0E0FE01E55DFE4F8C2F608129
S11309904EDE2196C530D105B1F790914F0180917B
S11309A050019C0188279927822F932F909331011E
S11309B08093300190915101809152019C018827CC
S11309C09927822F932F9093330180933201909132
S11309D05301809154019C0188279927822F932FDA
S11309E09093350180933401CFE4D1E015E0812F59
S11309F069911DDE1F5F1B30D1F710923A01DF9120
S1130A00CF911F910895309147013093C002632F15
S1130A1041E050E0E62FF0E0EE0FFF1FE95AFE4FF1
S1130A2080819181282FFA01E054FD4F2083DC015D
S1130A308B2F81836F5F4E5F5F4F4D30510551F7B0
S1130A403A5F309347011092CD021092CE02109279
S1130A50CF0280EC92E060E1EFDE0895853019F476
S1130A601092010103C081E0809301018EE0809324
S1130A7002018AE0809303010895E82F823010F484
S1130A8060E201C060E480913F01853009F460E6D2
S1130A90E23009F4E5E0F0E0EE0FFF1FE55EFE4F03
S1130AA0808191819FDD08951092490110923A014D
S1130AB008951F931091450127DB180F10934501EA
S1130AC01092400110924101109242011092430190
S1130AD08BE0612FACDD109245011F9108951F93A7
S1130AE08091440187FF53C0382F3F7730934401EE
S1130AF0832F6AE038D1992369F520914601243B7C
S1130B0048F5E22FF0E0EE0FFF1FE95AFE4F809107
S1130B10210190912201918380832F5FE22FF0E0E5
S1130B20EE0FFF1FE95AFE4F809125019091260197
S1130B30918380832F5FE22FF0E0EE0FFF1FE95ACD
S1130B40FE4F80911B0190911C01918380832F5F44
S1130B50209346013B3358F480911B0190911C0172
S1130B60C1DA809144018F5F8093440110C01091D9
S1130B704501CADA180F10934501109240011092F2
S1130B8041011092420110924301109244011F91BD
S1130B9008950F931F93CF93DF93782F8A01E90170
S1130BA0FA01808591858156994008F499C088811D
S1130BB0882379F4643068F0429A81E08883109243
S1130BC0450110924001109241011092420110928D
S1130BD043018881813039F4723028F088B188610A
S1130BE088B982E0888388818150823010F4C8DD1E
S1130BF010C010928900109288001092280110925F
S1130C00270110928B0010928A0010922A011092F0
S1130C102901409130015091310120E0F801868191
S1130C2097814817590708F421E030E0F8018285DC
S1130C3093854817590708F431E0232330E040E056
S1130C4050E08881823011F441E050E024233523C0
S1130C50232B19F083E0888342984091320150910C
S1130C60330120E0F801868197818417950708F401
S1130C7021E030E0F801828593858417950708F414
S1130C8031E0232330E040E050E08881833011F4E8
S1130C9041E050E024233523232B19F082E088839C
S1130CA0429A8881853009F059C088B1837F88B918
S1130CB016DF2091340130913501F8018681978146
S1130CC08217930730F0828593858217930708F083
S1130CD045C0EFDE88B18C6188B981E088833EC06D
S1130CE01092890010928800109228011092270116
S1130CF010928B0010928A0010922A0110922901FE
S1130D00188288B1837F88B9EADE2091340130915A
S1130D103501F801868197818217930728F082852F
S1130D20938582179307D0F420E048EC50E008C084
S1130D30FA013197F1F70197D9F72F5F2A3019F0AB
S1130D4080E395E7F5CFB5DE88B1837E88B9F801F5
S1130D50808591858056994008F4FFCFDF91CF912B
S1130D601F910F910895991B79E004C0991F96175C
S1130D7008F0961B881F7A95C9F780950895AA1BD9
S1130D80BB1B51E107C0AA1FBB1FA617B70710F072
S1130D90A61BB70B881F991F5A95A9F780959095A4
S10D0DA0BC01CD010895F894FFCFC3
S9030000FC
